{
  "_format": "hh-sol-artifact-1",
  "contractName": "Trinity",
  "sourceName": "contracts/Trinity.sol",
  "abi": [
    {
      "inputs": [
        {
          "internalType": "uint256",
          "name": "_entranceFee",
          "type": "uint256"
        }
      ],
      "stateMutability": "nonpayable",
      "type": "constructor"
    },
    {
      "inputs": [],
      "name": "Trinity__FlushFailed",
      "type": "error"
    },
    {
      "inputs": [],
      "name": "Trinity__InvalidEmployer",
      "type": "error"
    },
    {
      "inputs": [],
      "name": "Trinity__InvalidValidator",
      "type": "error"
    },
    {
      "inputs": [],
      "name": "Trinity__NotEnoughStakeSupplied",
      "type": "error"
    },
    {
      "anonymous": false,
      "inputs": [
        {
          "indexed": true,
          "internalType": "address",
          "name": "employer",
          "type": "address"
        }
      ],
      "name": "EmployerEnlisted",
      "type": "event"
    },
    {
      "anonymous": false,
      "inputs": [
        {
          "indexed": true,
          "internalType": "address",
          "name": "previousOwner",
          "type": "address"
        },
        {
          "indexed": true,
          "internalType": "address",
          "name": "newOwner",
          "type": "address"
        }
      ],
      "name": "OwnershipTransferred",
      "type": "event"
    },
    {
      "anonymous": false,
      "inputs": [
        {
          "indexed": true,
          "internalType": "address",
          "name": "candidate",
          "type": "address"
        },
        {
          "indexed": true,
          "internalType": "string",
          "name": "skill",
          "type": "string"
        },
        {
          "indexed": true,
          "internalType": "address",
          "name": "validator",
          "type": "address"
        }
      ],
      "name": "SkillCertificateIssued",
      "type": "event"
    },
    {
      "anonymous": false,
      "inputs": [
        {
          "indexed": true,
          "internalType": "address payable",
          "name": "validator",
          "type": "address"
        }
      ],
      "name": "ValidatorAdded",
      "type": "event"
    },
    {
      "inputs": [
        {
          "internalType": "address",
          "name": "_validator",
          "type": "address"
        }
      ],
      "name": "addValidator",
      "outputs": [],
      "stateMutability": "nonpayable",
      "type": "function"
    },
    {
      "inputs": [],
      "name": "endInterview",
      "outputs": [],
      "stateMutability": "view",
      "type": "function"
    },
    {
      "inputs": [],
      "name": "enlistEmployer",
      "outputs": [],
      "stateMutability": "payable",
      "type": "function"
    },
    {
      "inputs": [
        {
          "internalType": "address",
          "name": "_employer",
          "type": "address"
        }
      ],
      "name": "getEmployerStake",
      "outputs": [
        {
          "internalType": "uint256",
          "name": "",
          "type": "uint256"
        }
      ],
      "stateMutability": "view",
      "type": "function"
    },
    {
      "inputs": [],
      "name": "getEntranceFee",
      "outputs": [
        {
          "internalType": "uint256",
          "name": "",
          "type": "uint256"
        }
      ],
      "stateMutability": "view",
      "type": "function"
    },
    {
      "inputs": [
        {
          "internalType": "address",
          "name": "_employer",
          "type": "address"
        }
      ],
      "name": "isEmployer",
      "outputs": [
        {
          "internalType": "bool",
          "name": "",
          "type": "bool"
        }
      ],
      "stateMutability": "view",
      "type": "function"
    },
    {
      "inputs": [
        {
          "internalType": "address",
          "name": "_validator",
          "type": "address"
        }
      ],
      "name": "isValidator",
      "outputs": [
        {
          "internalType": "bool",
          "name": "",
          "type": "bool"
        }
      ],
      "stateMutability": "view",
      "type": "function"
    },
    {
      "inputs": [
        {
          "internalType": "address",
          "name": "candidate",
          "type": "address"
        },
        {
          "internalType": "string",
          "name": "skill",
          "type": "string"
        }
      ],
      "name": "issueSkillCertificate",
      "outputs": [],
      "stateMutability": "nonpayable",
      "type": "function"
    },
    {
      "inputs": [],
      "name": "killSwitch",
      "outputs": [],
      "stateMutability": "nonpayable",
      "type": "function"
    },
    {
      "inputs": [],
      "name": "owner",
      "outputs": [
        {
          "internalType": "address",
          "name": "",
          "type": "address"
        }
      ],
      "stateMutability": "view",
      "type": "function"
    },
    {
      "inputs": [],
      "name": "renounceOwnership",
      "outputs": [],
      "stateMutability": "nonpayable",
      "type": "function"
    },
    {
      "inputs": [
        {
          "internalType": "address",
          "name": "newOwner",
          "type": "address"
        }
      ],
      "name": "transferOwnership",
      "outputs": [],
      "stateMutability": "nonpayable",
      "type": "function"
    }
  ],
  "bytecode": "0x60a06040523480156200001157600080fd5b506040516200129438038062001294833981810160405281019062000037919062000149565b620000576200004b6200006660201b60201c565b6200006e60201b60201c565b80608081815250505062000199565b600033905090565b60008060009054906101000a900473ffffffffffffffffffffffffffffffffffffffff169050816000806101000a81548173ffffffffffffffffffffffffffffffffffffffff021916908373ffffffffffffffffffffffffffffffffffffffff1602179055508173ffffffffffffffffffffffffffffffffffffffff168173ffffffffffffffffffffffffffffffffffffffff167f8be0079c531659141344cd1fd0a4f28419497f9722a3daafe3b4186f6b6457e060405160405180910390a35050565b60008151905062000143816200017f565b92915050565b6000602082840312156200015c57600080fd5b60006200016c8482850162000132565b91505092915050565b6000819050919050565b6200018a8162000175565b81146200019657600080fd5b50565b6080516110d8620001bc6000396000818161028701526104fd01526110d86000f3fe6080604052600436106100a75760003560e01c80638da5cb5b116100645780638da5cb5b14610194578063a940548d146101bf578063ada14698146101c9578063ebb7fac0146101e0578063f2fde38b1461021d578063facd743b14610246576100a7565b806309bc33a7146100ac5780631974f853146100d757806323e78f5a146100ee578063417d6c99146101175780634d238c8e14610154578063715018a61461017d575b600080fd5b3480156100b857600080fd5b506100c1610283565b6040516100ce9190610db2565b60405180910390f35b3480156100e357600080fd5b506100ec6102ab565b005b3480156100fa57600080fd5b5061011560048036038101906101109190610c2d565b6102b5565b005b34801561012357600080fd5b5061013e60048036038101906101399190610c04565b610368565b60405161014b9190610d57565b60405180910390f35b34801561016057600080fd5b5061017b60048036038101906101769190610c04565b6103b4565b005b34801561018957600080fd5b506101926104be565b005b3480156101a057600080fd5b506101a96104d2565b6040516101b69190610d3c565b60405180910390f35b6101c76104fb565b005b3480156101d557600080fd5b506101de610653565b005b3480156101ec57600080fd5b5061020760048036038101906102029190610c04565b61082e565b6040516102149190610db2565b60405180910390f35b34801561022957600080fd5b50610244600480360381019061023f9190610c04565b6108b6565b005b34801561025257600080fd5b5061026d60048036038101906102689190610c04565b61093a565b60405161027a9190610d57565b60405180910390f35b60007f0000000000000000000000000000000000000000000000000000000000000000905090565b6102b3610996565b565b6102be3361093a565b6102f4576040517f5f3c254000000000000000000000000000000000000000000000000000000000815260040160405180910390fd5b3373ffffffffffffffffffffffffffffffffffffffff16816040516103199190610d25565b60405180910390208373ffffffffffffffffffffffffffffffffffffffff167f6442e14cb3acefd4cb93c5ff6c9834d39630f5817e72d1c809939ebec5eca33860405160405180910390a45050565b600080600260008473ffffffffffffffffffffffffffffffffffffffff1673ffffffffffffffffffffffffffffffffffffffff1681526020019081526020016000205414159050919050565b6103bc610996565b6003819080600181540180825580915050600190039060005260206000200160009091909190916101000a81548173ffffffffffffffffffffffffffffffffffffffff021916908373ffffffffffffffffffffffffffffffffffffffff1602179055506001600460008373ffffffffffffffffffffffffffffffffffffffff1673ffffffffffffffffffffffffffffffffffffffff16815260200190815260200160002060006101000a81548160ff021916908360ff1602179055508073ffffffffffffffffffffffffffffffffffffffff167fe366c1c0452ed8eec96861e9e54141ebff23c9ec89fe27b996b45f5ec388498760405160405180910390a250565b6104c6610996565b6104d06000610a14565b565b60008060009054906101000a900473ffffffffffffffffffffffffffffffffffffffff16905090565b7f0000000000000000000000000000000000000000000000000000000000000000341015610555576040517fcee346dd00000000000000000000000000000000000000000000000000000000815260040160405180910390fd5b6001339080600181540180825580915050600190039060005260206000200160009091909190916101000a81548173ffffffffffffffffffffffffffffffffffffffff021916908373ffffffffffffffffffffffffffffffffffffffff16021790555034600260003373ffffffffffffffffffffffffffffffffffffffff1673ffffffffffffffffffffffffffffffffffffffff16815260200190815260200160002060008282546106079190610e4a565b925050819055503373ffffffffffffffffffffffffffffffffffffffff167f488f0eeabb9288da16353729e050290bf07ad3c948b64b9bf96944c0b345f33660405160405180910390a2565b61065b610996565b60006106656104d2565b905060008173ffffffffffffffffffffffffffffffffffffffff166108fc479081150290604051600060405180830381858888f193505050509050806106d7576040517f84c4542900000000000000000000000000000000000000000000000000000000815260040160405180910390fd5b60005b6001805490508110156107a35760006002600060018481548110610727577f4e487b7100000000000000000000000000000000000000000000000000000000600052603260045260246000fd5b9060005260206000200160009054906101000a900473ffffffffffffffffffffffffffffffffffffffff1673ffffffffffffffffffffffffffffffffffffffff1673ffffffffffffffffffffffffffffffffffffffff16815260200190815260200160002081905550808061079b90610f5b565b9150506106da565b50600067ffffffffffffffff8111156107e5577f4e487b7100000000000000000000000000000000000000000000000000000000600052604160045260246000fd5b6040519080825280602002602001820160405280156108135781602001602082028036833780820191505090505b5060019080519060200190610829929190610ae0565b505050565b600061083982610368565b61086f576040517f5c305d7300000000000000000000000000000000000000000000000000000000815260040160405180910390fd5b600260008373ffffffffffffffffffffffffffffffffffffffff1673ffffffffffffffffffffffffffffffffffffffff168152602001908152602001600020549050919050565b6108be610996565b600073ffffffffffffffffffffffffffffffffffffffff168173ffffffffffffffffffffffffffffffffffffffff16141561092e576040517f08c379a000000000000000000000000000000000000000000000000000000000815260040161092590610d72565b60405180910390fd5b61093781610a14565b50565b600080600460008473ffffffffffffffffffffffffffffffffffffffff1673ffffffffffffffffffffffffffffffffffffffff16815260200190815260200160002060009054906101000a900460ff1660ff1614159050919050565b61099e610ad8565b73ffffffffffffffffffffffffffffffffffffffff166109bc6104d2565b73ffffffffffffffffffffffffffffffffffffffff1614610a12576040517f08c379a0000000000000000000000000000000000000000000000000000000008152600401610a0990610d92565b60405180910390fd5b565b60008060009054906101000a900473ffffffffffffffffffffffffffffffffffffffff169050816000806101000a81548173ffffffffffffffffffffffffffffffffffffffff021916908373ffffffffffffffffffffffffffffffffffffffff1602179055508173ffffffffffffffffffffffffffffffffffffffff168173ffffffffffffffffffffffffffffffffffffffff167f8be0079c531659141344cd1fd0a4f28419497f9722a3daafe3b4186f6b6457e060405160405180910390a35050565b600033905090565b828054828255906000526020600020908101928215610b59579160200282015b82811115610b585782518260006101000a81548173ffffffffffffffffffffffffffffffffffffffff021916908373ffffffffffffffffffffffffffffffffffffffff16021790555091602001919060010190610b00565b5b509050610b669190610b6a565b5090565b5b80821115610b83576000816000905550600101610b6b565b5090565b6000610b9a610b9584610df2565b610dcd565b905082815260208101848484011115610bb257600080fd5b610bbd848285610ee8565b509392505050565b600081359050610bd48161108b565b92915050565b600082601f830112610beb57600080fd5b8135610bfb848260208601610b87565b91505092915050565b600060208284031215610c1657600080fd5b6000610c2484828501610bc5565b91505092915050565b60008060408385031215610c4057600080fd5b6000610c4e85828601610bc5565b925050602083013567ffffffffffffffff811115610c6b57600080fd5b610c7785828601610bda565b9150509250929050565b610c8a81610ea0565b82525050565b610c9981610eb2565b82525050565b6000610caa82610e23565b610cb48185610e3f565b9350610cc4818560208601610ef7565b80840191505092915050565b6000610cdd602683610e2e565b9150610ce882611013565b604082019050919050565b6000610d00602083610e2e565b9150610d0b82611062565b602082019050919050565b610d1f81610ede565b82525050565b6000610d318284610c9f565b915081905092915050565b6000602082019050610d516000830184610c81565b92915050565b6000602082019050610d6c6000830184610c90565b92915050565b60006020820190508181036000830152610d8b81610cd0565b9050919050565b60006020820190508181036000830152610dab81610cf3565b9050919050565b6000602082019050610dc76000830184610d16565b92915050565b6000610dd7610de8565b9050610de38282610f2a565b919050565b6000604051905090565b600067ffffffffffffffff821115610e0d57610e0c610fd3565b5b610e1682611002565b9050602081019050919050565b600081519050919050565b600082825260208201905092915050565b600081905092915050565b6000610e5582610ede565b9150610e6083610ede565b9250827fffffffffffffffffffffffffffffffffffffffffffffffffffffffffffffffff03821115610e9557610e94610fa4565b5b828201905092915050565b6000610eab82610ebe565b9050919050565b60008115159050919050565b600073ffffffffffffffffffffffffffffffffffffffff82169050919050565b6000819050919050565b82818337600083830152505050565b60005b83811015610f15578082015181840152602081019050610efa565b83811115610f24576000848401525b50505050565b610f3382611002565b810181811067ffffffffffffffff82111715610f5257610f51610fd3565b5b80604052505050565b6000610f6682610ede565b91507fffffffffffffffffffffffffffffffffffffffffffffffffffffffffffffffff821415610f9957610f98610fa4565b5b600182019050919050565b7f4e487b7100000000000000000000000000000000000000000000000000000000600052601160045260246000fd5b7f4e487b7100000000000000000000000000000000000000000000000000000000600052604160045260246000fd5b6000601f19601f8301169050919050565b7f4f776e61626c653a206e6577206f776e657220697320746865207a65726f206160008201527f6464726573730000000000000000000000000000000000000000000000000000602082015250565b7f4f776e61626c653a2063616c6c6572206973206e6f7420746865206f776e6572600082015250565b61109481610ea0565b811461109f57600080fd5b5056fea264697066735822122058618b9756880c5e60525686d061a82ae178ca459221d20a7b41454f9815f68b64736f6c63430008040033",
  "linkReferences": {},
  "deployedLinkReferences": {}
}