{
  "_format": "hh-sol-artifact-1",
  "contractName": "Trinity",
  "sourceName": "contracts/Trinity.sol",
  "abi": [
    {
      "inputs": [
        {
          "internalType": "uint256",
          "name": "_entranceFee",
          "type": "uint256"
        }
      ],
      "stateMutability": "nonpayable",
      "type": "constructor"
    },
    {
      "inputs": [],
      "name": "Trinity__InvalidEmployer",
      "type": "error"
    },
    {
      "inputs": [],
      "name": "Trinity__InvalidValidator",
      "type": "error"
    },
    {
      "inputs": [],
      "name": "Trinity__NotEnoughEnoughSupplied",
      "type": "error"
    },
    {
      "anonymous": false,
      "inputs": [
        {
          "indexed": true,
          "internalType": "address",
          "name": "employer",
          "type": "address"
        }
      ],
      "name": "EmployerEnlisted",
      "type": "event"
    },
    {
      "anonymous": false,
      "inputs": [
        {
          "indexed": true,
          "internalType": "address",
          "name": "previousOwner",
          "type": "address"
        },
        {
          "indexed": true,
          "internalType": "address",
          "name": "newOwner",
          "type": "address"
        }
      ],
      "name": "OwnershipTransferred",
      "type": "event"
    },
    {
      "anonymous": false,
      "inputs": [
        {
          "indexed": true,
          "internalType": "address",
          "name": "candidate",
          "type": "address"
        },
        {
          "indexed": true,
          "internalType": "string",
          "name": "skill",
          "type": "string"
        },
        {
          "indexed": true,
          "internalType": "address",
          "name": "validator",
          "type": "address"
        }
      ],
      "name": "SkillCertificateIssued",
      "type": "event"
    },
    {
      "anonymous": false,
      "inputs": [
        {
          "indexed": true,
          "internalType": "address payable",
          "name": "validator",
          "type": "address"
        }
      ],
      "name": "ValidatorAdded",
      "type": "event"
    },
    {
      "inputs": [
        {
          "internalType": "address",
          "name": "_validator",
          "type": "address"
        }
      ],
      "name": "addValidator",
      "outputs": [],
      "stateMutability": "nonpayable",
      "type": "function"
    },
    {
      "inputs": [],
      "name": "endInterview",
      "outputs": [],
      "stateMutability": "view",
      "type": "function"
    },
    {
      "inputs": [],
      "name": "enlistEmployer",
      "outputs": [],
      "stateMutability": "payable",
      "type": "function"
    },
    {
      "inputs": [],
      "name": "getEmployerStake",
      "outputs": [
        {
          "internalType": "uint256",
          "name": "",
          "type": "uint256"
        }
      ],
      "stateMutability": "view",
      "type": "function"
    },
    {
      "inputs": [],
      "name": "getEntranceFee",
      "outputs": [
        {
          "internalType": "uint256",
          "name": "",
          "type": "uint256"
        }
      ],
      "stateMutability": "view",
      "type": "function"
    },
    {
      "inputs": [
        {
          "internalType": "address",
          "name": "_employer",
          "type": "address"
        }
      ],
      "name": "isEmployer",
      "outputs": [
        {
          "internalType": "bool",
          "name": "",
          "type": "bool"
        }
      ],
      "stateMutability": "view",
      "type": "function"
    },
    {
      "inputs": [
        {
          "internalType": "address",
          "name": "_validator",
          "type": "address"
        }
      ],
      "name": "isValidator",
      "outputs": [
        {
          "internalType": "bool",
          "name": "",
          "type": "bool"
        }
      ],
      "stateMutability": "view",
      "type": "function"
    },
    {
      "inputs": [
        {
          "internalType": "address",
          "name": "candidate",
          "type": "address"
        },
        {
          "internalType": "string",
          "name": "skill",
          "type": "string"
        }
      ],
      "name": "issueSkillCertificate",
      "outputs": [],
      "stateMutability": "nonpayable",
      "type": "function"
    },
    {
      "inputs": [],
      "name": "owner",
      "outputs": [
        {
          "internalType": "address",
          "name": "",
          "type": "address"
        }
      ],
      "stateMutability": "view",
      "type": "function"
    },
    {
      "inputs": [],
      "name": "renounceOwnership",
      "outputs": [],
      "stateMutability": "nonpayable",
      "type": "function"
    },
    {
      "inputs": [
        {
          "internalType": "address",
          "name": "newOwner",
          "type": "address"
        }
      ],
      "name": "transferOwnership",
      "outputs": [],
      "stateMutability": "nonpayable",
      "type": "function"
    }
  ],
  "bytecode": "0x60a060405234801561001057600080fd5b506040516200104e3803806200104e8339818101604052810190610034919061013f565b61005061004561005e60201b60201c565b61006660201b60201c565b806080818152505050610189565b600033905090565b60008060009054906101000a900473ffffffffffffffffffffffffffffffffffffffff169050816000806101000a81548173ffffffffffffffffffffffffffffffffffffffff021916908373ffffffffffffffffffffffffffffffffffffffff1602179055508173ffffffffffffffffffffffffffffffffffffffff168173ffffffffffffffffffffffffffffffffffffffff167f8be0079c531659141344cd1fd0a4f28419497f9722a3daafe3b4186f6b6457e060405160405180910390a35050565b60008151905061013981610172565b92915050565b60006020828403121561015157600080fd5b600061015f8482850161012a565b91505092915050565b6000819050919050565b61017b81610168565b811461018657600080fd5b50565b608051610ea2620001ac6000396000818161025301526105580152610ea26000f3fe60806040526004361061009c5760003560e01c80634d238c8e116100645780634d238c8e14610174578063715018a61461019d5780638da5cb5b146101b4578063a940548d146101df578063f2fde38b146101e9578063facd743b146102125761009c565b806309bc33a7146100a15780631974f853146100cc57806323e78f5a146100e357806326a412841461010c578063417d6c9914610137575b600080fd5b3480156100ad57600080fd5b506100b661024f565b6040516100c39190610bc5565b60405180910390f35b3480156100d857600080fd5b506100e1610277565b005b3480156100ef57600080fd5b5061010a60048036038101906101059190610a40565b610281565b005b34801561011857600080fd5b50610121610334565b60405161012e9190610bc5565b60405180910390f35b34801561014357600080fd5b5061015e60048036038101906101599190610a17565b6103ba565b60405161016b9190610b6a565b60405180910390f35b34801561018057600080fd5b5061019b60048036038101906101969190610a17565b610406565b005b3480156101a957600080fd5b506101b2610519565b005b3480156101c057600080fd5b506101c961052d565b6040516101d69190610b4f565b60405180910390f35b6101e7610556565b005b3480156101f557600080fd5b50610210600480360381019061020b9190610a17565b6106ae565b005b34801561021e57600080fd5b5061023960048036038101906102349190610a17565b610732565b6040516102469190610b6a565b60405180910390f35b60007f0000000000000000000000000000000000000000000000000000000000000000905090565b61027f61078e565b565b61028a33610732565b6102c0576040517f5f3c254000000000000000000000000000000000000000000000000000000000815260040160405180910390fd5b3373ffffffffffffffffffffffffffffffffffffffff16816040516102e59190610b38565b60405180910390208373ffffffffffffffffffffffffffffffffffffffff167f6442e14cb3acefd4cb93c5ff6c9834d39630f5817e72d1c809939ebec5eca33860405160405180910390a45050565b600061033f336103ba565b610375576040517f5c305d7300000000000000000000000000000000000000000000000000000000815260040160405180910390fd5b600260003373ffffffffffffffffffffffffffffffffffffffff1673ffffffffffffffffffffffffffffffffffffffff16815260200190815260200160002054905090565b600080600260008473ffffffffffffffffffffffffffffffffffffffff1673ffffffffffffffffffffffffffffffffffffffff1681526020019081526020016000205414159050919050565b61040e61078e565b6104178161080c565b6003819080600181540180825580915050600190039060005260206000200160009091909190916101000a81548173ffffffffffffffffffffffffffffffffffffffff021916908373ffffffffffffffffffffffffffffffffffffffff1602179055506001600460008373ffffffffffffffffffffffffffffffffffffffff1673ffffffffffffffffffffffffffffffffffffffff16815260200190815260200160002060006101000a81548160ff021916908360ff1602179055508073ffffffffffffffffffffffffffffffffffffffff167fe366c1c0452ed8eec96861e9e54141ebff23c9ec89fe27b996b45f5ec388498760405160405180910390a250565b61052161078e565b61052b60006108a5565b565b60008060009054906101000a900473ffffffffffffffffffffffffffffffffffffffff16905090565b7f00000000000000000000000000000000000000000000000000000000000000003410156105b0576040517fd0bf527900000000000000000000000000000000000000000000000000000000815260040160405180910390fd5b6001339080600181540180825580915050600190039060005260206000200160009091909190916101000a81548173ffffffffffffffffffffffffffffffffffffffff021916908373ffffffffffffffffffffffffffffffffffffffff16021790555034600260003373ffffffffffffffffffffffffffffffffffffffff1673ffffffffffffffffffffffffffffffffffffffff16815260200190815260200160002060008282546106629190610c5d565b925050819055503373ffffffffffffffffffffffffffffffffffffffff167f488f0eeabb9288da16353729e050290bf07ad3c948b64b9bf96944c0b345f33660405160405180910390a2565b6106b661078e565b600073ffffffffffffffffffffffffffffffffffffffff168173ffffffffffffffffffffffffffffffffffffffff161415610726576040517f08c379a000000000000000000000000000000000000000000000000000000000815260040161071d90610b85565b60405180910390fd5b61072f816108a5565b50565b600080600460008473ffffffffffffffffffffffffffffffffffffffff1673ffffffffffffffffffffffffffffffffffffffff16815260200190815260200160002060009054906101000a900460ff1660ff1614159050919050565b610796610969565b73ffffffffffffffffffffffffffffffffffffffff166107b461052d565b73ffffffffffffffffffffffffffffffffffffffff161461080a576040517f08c379a000000000000000000000000000000000000000000000000000000000815260040161080190610ba5565b60405180910390fd5b565b6108a2816040516024016108209190610b4f565b6040516020818303038152906040527f2c2ecbc2000000000000000000000000000000000000000000000000000000007bffffffffffffffffffffffffffffffffffffffffffffffffffffffff19166020820180517bffffffffffffffffffffffffffffffffffffffffffffffffffffffff8381831617835250505050610971565b50565b60008060009054906101000a900473ffffffffffffffffffffffffffffffffffffffff169050816000806101000a81548173ffffffffffffffffffffffffffffffffffffffff021916908373ffffffffffffffffffffffffffffffffffffffff1602179055508173ffffffffffffffffffffffffffffffffffffffff168173ffffffffffffffffffffffffffffffffffffffff167f8be0079c531659141344cd1fd0a4f28419497f9722a3daafe3b4186f6b6457e060405160405180910390a35050565b600033905090565b60008151905060006a636f6e736f6c652e6c6f679050602083016000808483855afa5050505050565b60006109ad6109a884610c05565b610be0565b9050828152602081018484840111156109c557600080fd5b6109d0848285610cfb565b509392505050565b6000813590506109e781610e55565b92915050565b600082601f8301126109fe57600080fd5b8135610a0e84826020860161099a565b91505092915050565b600060208284031215610a2957600080fd5b6000610a37848285016109d8565b91505092915050565b60008060408385031215610a5357600080fd5b6000610a61858286016109d8565b925050602083013567ffffffffffffffff811115610a7e57600080fd5b610a8a858286016109ed565b9150509250929050565b610a9d81610cb3565b82525050565b610aac81610cc5565b82525050565b6000610abd82610c36565b610ac78185610c52565b9350610ad7818560208601610d0a565b80840191505092915050565b6000610af0602683610c41565b9150610afb82610ddd565b604082019050919050565b6000610b13602083610c41565b9150610b1e82610e2c565b602082019050919050565b610b3281610cf1565b82525050565b6000610b448284610ab2565b915081905092915050565b6000602082019050610b646000830184610a94565b92915050565b6000602082019050610b7f6000830184610aa3565b92915050565b60006020820190508181036000830152610b9e81610ae3565b9050919050565b60006020820190508181036000830152610bbe81610b06565b9050919050565b6000602082019050610bda6000830184610b29565b92915050565b6000610bea610bfb565b9050610bf68282610d3d565b919050565b6000604051905090565b600067ffffffffffffffff821115610c2057610c1f610d9d565b5b610c2982610dcc565b9050602081019050919050565b600081519050919050565b600082825260208201905092915050565b600081905092915050565b6000610c6882610cf1565b9150610c7383610cf1565b9250827fffffffffffffffffffffffffffffffffffffffffffffffffffffffffffffffff03821115610ca857610ca7610d6e565b5b828201905092915050565b6000610cbe82610cd1565b9050919050565b60008115159050919050565b600073ffffffffffffffffffffffffffffffffffffffff82169050919050565b6000819050919050565b82818337600083830152505050565b60005b83811015610d28578082015181840152602081019050610d0d565b83811115610d37576000848401525b50505050565b610d4682610dcc565b810181811067ffffffffffffffff82111715610d6557610d64610d9d565b5b80604052505050565b7f4e487b7100000000000000000000000000000000000000000000000000000000600052601160045260246000fd5b7f4e487b7100000000000000000000000000000000000000000000000000000000600052604160045260246000fd5b6000601f19601f8301169050919050565b7f4f776e61626c653a206e6577206f776e657220697320746865207a65726f206160008201527f6464726573730000000000000000000000000000000000000000000000000000602082015250565b7f4f776e61626c653a2063616c6c6572206973206e6f7420746865206f776e6572600082015250565b610e5e81610cb3565b8114610e6957600080fd5b5056fea26469706673582212201e3a62b1dc013addc13098cce82de8bd175430b5320db4e395f1afbb9f54896a64736f6c63430008040033",
  "linkReferences": {},
  "deployedLinkReferences": {}
}