{
  "_format": "hh-sol-artifact-1",
  "contractName": "Trinity",
  "sourceName": "contracts/Trinity.sol",
  "abi": [
    {
      "inputs": [
        {
          "internalType": "uint256",
          "name": "_entranceFee",
          "type": "uint256"
        }
      ],
      "stateMutability": "nonpayable",
      "type": "constructor"
    },
    {
      "inputs": [],
      "name": "Trinity__FlushFailed",
      "type": "error"
    },
    {
      "inputs": [],
      "name": "Trinity__InvalidEmployer",
      "type": "error"
    },
    {
      "inputs": [],
      "name": "Trinity__InvalidValidator",
      "type": "error"
    },
    {
      "inputs": [],
      "name": "Trinity__NotEnoughStakeSupplied",
      "type": "error"
    },
    {
      "anonymous": false,
      "inputs": [
        {
          "indexed": true,
          "internalType": "address",
          "name": "owner",
          "type": "address"
        },
        {
          "indexed": true,
          "internalType": "address",
          "name": "approved",
          "type": "address"
        },
        {
          "indexed": true,
          "internalType": "uint256",
          "name": "tokenId",
          "type": "uint256"
        }
      ],
      "name": "Approval",
      "type": "event"
    },
    {
      "anonymous": false,
      "inputs": [
        {
          "indexed": true,
          "internalType": "address",
          "name": "owner",
          "type": "address"
        },
        {
          "indexed": true,
          "internalType": "address",
          "name": "operator",
          "type": "address"
        },
        {
          "indexed": false,
          "internalType": "bool",
          "name": "approved",
          "type": "bool"
        }
      ],
      "name": "ApprovalForAll",
      "type": "event"
    },
    {
      "anonymous": false,
      "inputs": [
        {
          "indexed": true,
          "internalType": "address",
          "name": "employer",
          "type": "address"
        }
      ],
      "name": "EmployerEnlisted",
      "type": "event"
    },
    {
      "anonymous": false,
      "inputs": [
        {
          "indexed": true,
          "internalType": "address",
          "name": "previousOwner",
          "type": "address"
        },
        {
          "indexed": true,
          "internalType": "address",
          "name": "newOwner",
          "type": "address"
        }
      ],
      "name": "OwnershipTransferred",
      "type": "event"
    },
    {
      "anonymous": false,
      "inputs": [
        {
          "indexed": true,
          "internalType": "address",
          "name": "candidate",
          "type": "address"
        },
        {
          "indexed": true,
          "internalType": "address",
          "name": "validator",
          "type": "address"
        },
        {
          "indexed": true,
          "internalType": "string",
          "name": "skill",
          "type": "string"
        }
      ],
      "name": "SkillNFTIssued",
      "type": "event"
    },
    {
      "anonymous": false,
      "inputs": [
        {
          "indexed": true,
          "internalType": "address",
          "name": "from",
          "type": "address"
        },
        {
          "indexed": true,
          "internalType": "address",
          "name": "to",
          "type": "address"
        },
        {
          "indexed": true,
          "internalType": "uint256",
          "name": "tokenId",
          "type": "uint256"
        }
      ],
      "name": "Transfer",
      "type": "event"
    },
    {
      "anonymous": false,
      "inputs": [
        {
          "indexed": true,
          "internalType": "address payable",
          "name": "validator",
          "type": "address"
        }
      ],
      "name": "ValidatorAdded",
      "type": "event"
    },
    {
      "inputs": [
        {
          "internalType": "address",
          "name": "_validator",
          "type": "address"
        }
      ],
      "name": "addValidator",
      "outputs": [],
      "stateMutability": "nonpayable",
      "type": "function"
    },
    {
      "inputs": [
        {
          "internalType": "address",
          "name": "to",
          "type": "address"
        },
        {
          "internalType": "uint256",
          "name": "tokenId",
          "type": "uint256"
        }
      ],
      "name": "approve",
      "outputs": [],
      "stateMutability": "nonpayable",
      "type": "function"
    },
    {
      "inputs": [
        {
          "internalType": "address",
          "name": "owner",
          "type": "address"
        }
      ],
      "name": "balanceOf",
      "outputs": [
        {
          "internalType": "uint256",
          "name": "",
          "type": "uint256"
        }
      ],
      "stateMutability": "view",
      "type": "function"
    },
    {
      "inputs": [],
      "name": "enlistEmployer",
      "outputs": [],
      "stateMutability": "payable",
      "type": "function"
    },
    {
      "inputs": [
        {
          "internalType": "uint256",
          "name": "tokenId",
          "type": "uint256"
        }
      ],
      "name": "getApproved",
      "outputs": [
        {
          "internalType": "address",
          "name": "",
          "type": "address"
        }
      ],
      "stateMutability": "view",
      "type": "function"
    },
    {
      "inputs": [
        {
          "internalType": "address",
          "name": "_employer",
          "type": "address"
        }
      ],
      "name": "getEmployerStake",
      "outputs": [
        {
          "internalType": "uint256",
          "name": "",
          "type": "uint256"
        }
      ],
      "stateMutability": "view",
      "type": "function"
    },
    {
      "inputs": [],
      "name": "getEntranceFee",
      "outputs": [
        {
          "internalType": "uint256",
          "name": "",
          "type": "uint256"
        }
      ],
      "stateMutability": "view",
      "type": "function"
    },
    {
      "inputs": [
        {
          "internalType": "address",
          "name": "owner",
          "type": "address"
        },
        {
          "internalType": "address",
          "name": "operator",
          "type": "address"
        }
      ],
      "name": "isApprovedForAll",
      "outputs": [
        {
          "internalType": "bool",
          "name": "",
          "type": "bool"
        }
      ],
      "stateMutability": "view",
      "type": "function"
    },
    {
      "inputs": [
        {
          "internalType": "address",
          "name": "_employer",
          "type": "address"
        }
      ],
      "name": "isEmployer",
      "outputs": [
        {
          "internalType": "bool",
          "name": "",
          "type": "bool"
        }
      ],
      "stateMutability": "view",
      "type": "function"
    },
    {
      "inputs": [
        {
          "internalType": "address",
          "name": "_validator",
          "type": "address"
        }
      ],
      "name": "isValidator",
      "outputs": [
        {
          "internalType": "bool",
          "name": "",
          "type": "bool"
        }
      ],
      "stateMutability": "view",
      "type": "function"
    },
    {
      "inputs": [
        {
          "internalType": "address",
          "name": "_candidate",
          "type": "address"
        },
        {
          "internalType": "string",
          "name": "_skill",
          "type": "string"
        }
      ],
      "name": "issueSkillNFT",
      "outputs": [],
      "stateMutability": "nonpayable",
      "type": "function"
    },
    {
      "inputs": [],
      "name": "killSwitch",
      "outputs": [],
      "stateMutability": "nonpayable",
      "type": "function"
    },
    {
      "inputs": [],
      "name": "name",
      "outputs": [
        {
          "internalType": "string",
          "name": "",
          "type": "string"
        }
      ],
      "stateMutability": "view",
      "type": "function"
    },
    {
      "inputs": [],
      "name": "owner",
      "outputs": [
        {
          "internalType": "address",
          "name": "",
          "type": "address"
        }
      ],
      "stateMutability": "view",
      "type": "function"
    },
    {
      "inputs": [
        {
          "internalType": "uint256",
          "name": "tokenId",
          "type": "uint256"
        }
      ],
      "name": "ownerOf",
      "outputs": [
        {
          "internalType": "address",
          "name": "",
          "type": "address"
        }
      ],
      "stateMutability": "view",
      "type": "function"
    },
    {
      "inputs": [],
      "name": "renounceOwnership",
      "outputs": [],
      "stateMutability": "nonpayable",
      "type": "function"
    },
    {
      "inputs": [
        {
          "internalType": "address",
          "name": "from",
          "type": "address"
        },
        {
          "internalType": "address",
          "name": "to",
          "type": "address"
        },
        {
          "internalType": "uint256",
          "name": "tokenId",
          "type": "uint256"
        }
      ],
      "name": "safeTransferFrom",
      "outputs": [],
      "stateMutability": "nonpayable",
      "type": "function"
    },
    {
      "inputs": [
        {
          "internalType": "address",
          "name": "from",
          "type": "address"
        },
        {
          "internalType": "address",
          "name": "to",
          "type": "address"
        },
        {
          "internalType": "uint256",
          "name": "tokenId",
          "type": "uint256"
        },
        {
          "internalType": "bytes",
          "name": "data",
          "type": "bytes"
        }
      ],
      "name": "safeTransferFrom",
      "outputs": [],
      "stateMutability": "nonpayable",
      "type": "function"
    },
    {
      "inputs": [
        {
          "internalType": "address",
          "name": "operator",
          "type": "address"
        },
        {
          "internalType": "bool",
          "name": "approved",
          "type": "bool"
        }
      ],
      "name": "setApprovalForAll",
      "outputs": [],
      "stateMutability": "nonpayable",
      "type": "function"
    },
    {
      "inputs": [
        {
          "internalType": "bytes4",
          "name": "interfaceId",
          "type": "bytes4"
        }
      ],
      "name": "supportsInterface",
      "outputs": [
        {
          "internalType": "bool",
          "name": "",
          "type": "bool"
        }
      ],
      "stateMutability": "view",
      "type": "function"
    },
    {
      "inputs": [],
      "name": "symbol",
      "outputs": [
        {
          "internalType": "string",
          "name": "",
          "type": "string"
        }
      ],
      "stateMutability": "view",
      "type": "function"
    },
    {
      "inputs": [
        {
          "internalType": "uint256",
          "name": "tokenId",
          "type": "uint256"
        }
      ],
      "name": "tokenURI",
      "outputs": [
        {
          "internalType": "string",
          "name": "",
          "type": "string"
        }
      ],
      "stateMutability": "view",
      "type": "function"
    },
    {
      "inputs": [
        {
          "internalType": "address",
          "name": "from",
          "type": "address"
        },
        {
          "internalType": "address",
          "name": "to",
          "type": "address"
        },
        {
          "internalType": "uint256",
          "name": "tokenId",
          "type": "uint256"
        }
      ],
      "name": "transferFrom",
      "outputs": [],
      "stateMutability": "nonpayable",
      "type": "function"
    },
    {
      "inputs": [
        {
          "internalType": "address",
          "name": "newOwner",
          "type": "address"
        }
      ],
      "name": "transferOwnership",
      "outputs": [],
      "stateMutability": "nonpayable",
      "type": "function"
    }
  ],
  "bytecode": "0x60a06040523480156200001157600080fd5b506040516200392c3803806200392c833981810160405281019062000037919062000299565b6040518060400160405280600b81526020017f5472696e697479204e46540000000000000000000000000000000000000000008152506040518060400160405280600781526020017f5452494e49545900000000000000000000000000000000000000000000000000815250620000c3620000b76200010660201b60201c565b6200010e60201b60201c565b8160019080519060200190620000db929190620001d2565b508060029080519060200190620000f4929190620001d2565b5050508060808181525050506200034e565b600033905090565b60008060009054906101000a900473ffffffffffffffffffffffffffffffffffffffff169050816000806101000a81548173ffffffffffffffffffffffffffffffffffffffff021916908373ffffffffffffffffffffffffffffffffffffffff1602179055508173ffffffffffffffffffffffffffffffffffffffff168173ffffffffffffffffffffffffffffffffffffffff167f8be0079c531659141344cd1fd0a4f28419497f9722a3daafe3b4186f6b6457e060405160405180910390a35050565b828054620001e090620002cf565b90600052602060002090601f01602090048101928262000204576000855562000250565b82601f106200021f57805160ff191683800117855562000250565b8280016001018555821562000250579182015b828111156200024f57825182559160200191906001019062000232565b5b5090506200025f919062000263565b5090565b5b808211156200027e57600081600090555060010162000264565b5090565b600081519050620002938162000334565b92915050565b600060208284031215620002ac57600080fd5b6000620002bc8482850162000282565b91505092915050565b6000819050919050565b60006002820490506001821680620002e857607f821691505b60208210811415620002ff57620002fe62000305565b5b50919050565b7f4e487b7100000000000000000000000000000000000000000000000000000000600052602260045260246000fd5b6200033f81620002c5565b81146200034b57600080fd5b50565b6080516135bb62000371600039600081816108770152610cc201526135bb6000f3fe60806040526004361061014b5760003560e01c80638da5cb5b116100b6578063b88d4fde1161006f578063b88d4fde1461045b578063c87b56dd14610484578063e985e9c5146104c1578063ebb7fac0146104fe578063f2fde38b1461053b578063facd743b146105645761014b565b80638da5cb5b1461039257806395d89b41146103bd578063a22cb465146103e8578063a940548d14610411578063ada146981461041b578063af38d6c1146104325761014b565b8063417d6c9911610108578063417d6c991461027257806342842e0e146102af5780634d238c8e146102d85780636352211e1461030157806370a082311461033e578063715018a61461037b5761014b565b806301ffc9a71461015057806306fdde031461018d578063081812fc146101b8578063095ea7b3146101f557806309bc33a71461021e57806323b872dd14610249575b600080fd5b34801561015c57600080fd5b50610177600480360381019061017291906127c1565b6105a1565b6040516101849190612b98565b60405180910390f35b34801561019957600080fd5b506101a2610683565b6040516101af9190612bb3565b60405180910390f35b3480156101c457600080fd5b506101df60048036038101906101da9190612813565b610715565b6040516101ec9190612b31565b60405180910390f35b34801561020157600080fd5b5061021c60048036038101906102179190612785565b61075b565b005b34801561022a57600080fd5b50610233610873565b6040516102409190612d95565b60405180910390f35b34801561025557600080fd5b50610270600480360381019061026b919061262b565b61089b565b005b34801561027e57600080fd5b50610299600480360381019061029491906125c6565b6108fb565b6040516102a69190612b98565b60405180910390f35b3480156102bb57600080fd5b506102d660048036038101906102d1919061262b565b610947565b005b3480156102e457600080fd5b506102ff60048036038101906102fa91906125c6565b610967565b005b34801561030d57600080fd5b5061032860048036038101906103239190612813565b610a71565b6040516103359190612b31565b60405180910390f35b34801561034a57600080fd5b50610365600480360381019061036091906125c6565b610b23565b6040516103729190612d95565b60405180910390f35b34801561038757600080fd5b50610390610bdb565b005b34801561039e57600080fd5b506103a7610bef565b6040516103b49190612b31565b60405180910390f35b3480156103c957600080fd5b506103d2610c18565b6040516103df9190612bb3565b60405180910390f35b3480156103f457600080fd5b5061040f600480360381019061040a91906126f5565b610caa565b005b610419610cc0565b005b34801561042757600080fd5b50610430610e70565b005b34801561043e57600080fd5b5061045960048036038101906104549190612731565b61104b565b005b34801561046757600080fd5b50610482600480360381019061047d919061267a565b61112b565b005b34801561049057600080fd5b506104ab60048036038101906104a69190612813565b61118d565b6040516104b89190612bb3565b60405180910390f35b3480156104cd57600080fd5b506104e860048036038101906104e391906125ef565b6112a0565b6040516104f59190612b98565b60405180910390f35b34801561050a57600080fd5b50610525600480360381019061052091906125c6565b611334565b6040516105329190612d95565b60405180910390f35b34801561054757600080fd5b50610562600480360381019061055d91906125c6565b6113bc565b005b34801561057057600080fd5b5061058b600480360381019061058691906125c6565b611440565b6040516105989190612b98565b60405180910390f35b60007f80ac58cd000000000000000000000000000000000000000000000000000000007bffffffffffffffffffffffffffffffffffffffffffffffffffffffff1916827bffffffffffffffffffffffffffffffffffffffffffffffffffffffff1916148061066c57507f5b5e139f000000000000000000000000000000000000000000000000000000007bffffffffffffffffffffffffffffffffffffffffffffffffffffffff1916827bffffffffffffffffffffffffffffffffffffffffffffffffffffffff1916145b8061067c575061067b8261149c565b5b9050919050565b60606001805461069290612feb565b80601f01602080910402602001604051908101604052809291908181526020018280546106be90612feb565b801561070b5780601f106106e05761010080835404028352916020019161070b565b820191906000526020600020905b8154815290600101906020018083116106ee57829003601f168201915b5050505050905090565b600061072082611506565b6005600083815260200190815260200160002060009054906101000a900473ffffffffffffffffffffffffffffffffffffffff169050919050565b600061076682610a71565b90508073ffffffffffffffffffffffffffffffffffffffff168373ffffffffffffffffffffffffffffffffffffffff1614156107d7576040517f08c379a00000000000000000000000000000000000000000000000000000000081526004016107ce90612d55565b60405180910390fd5b8073ffffffffffffffffffffffffffffffffffffffff166107f6611551565b73ffffffffffffffffffffffffffffffffffffffff16148061082557506108248161081f611551565b6112a0565b5b610864576040517f08c379a000000000000000000000000000000000000000000000000000000000815260040161085b90612cd5565b60405180910390fd5b61086e8383611559565b505050565b60007f0000000000000000000000000000000000000000000000000000000000000000905090565b6108ac6108a6611551565b82611612565b6108eb576040517f08c379a00000000000000000000000000000000000000000000000000000000081526004016108e290612d75565b60405180910390fd5b6108f68383836116a7565b505050565b600080600960008473ffffffffffffffffffffffffffffffffffffffff1673ffffffffffffffffffffffffffffffffffffffff1681526020019081526020016000205414159050919050565b6109628383836040518060200160405280600081525061112b565b505050565b61096f61190e565b600a819080600181540180825580915050600190039060005260206000200160009091909190916101000a81548173ffffffffffffffffffffffffffffffffffffffff021916908373ffffffffffffffffffffffffffffffffffffffff1602179055506001600b60008373ffffffffffffffffffffffffffffffffffffffff1673ffffffffffffffffffffffffffffffffffffffff16815260200190815260200160002060006101000a81548160ff021916908360ff1602179055508073ffffffffffffffffffffffffffffffffffffffff167fe366c1c0452ed8eec96861e9e54141ebff23c9ec89fe27b996b45f5ec388498760405160405180910390a250565b6000806003600084815260200190815260200160002060009054906101000a900473ffffffffffffffffffffffffffffffffffffffff169050600073ffffffffffffffffffffffffffffffffffffffff168173ffffffffffffffffffffffffffffffffffffffff161415610b1a576040517f08c379a0000000000000000000000000000000000000000000000000000000008152600401610b1190612d35565b60405180910390fd5b80915050919050565b60008073ffffffffffffffffffffffffffffffffffffffff168273ffffffffffffffffffffffffffffffffffffffff161415610b94576040517f08c379a0000000000000000000000000000000000000000000000000000000008152600401610b8b90612c95565b60405180910390fd5b600460008373ffffffffffffffffffffffffffffffffffffffff1673ffffffffffffffffffffffffffffffffffffffff168152602001908152602001600020549050919050565b610be361190e565b610bed600061198c565b565b60008060009054906101000a900473ffffffffffffffffffffffffffffffffffffffff16905090565b606060028054610c2790612feb565b80601f0160208091040260200160405190810160405280929190818152602001828054610c5390612feb565b8015610ca05780601f10610c7557610100808354040283529160200191610ca0565b820191906000526020600020905b815481529060010190602001808311610c8357829003601f168201915b5050505050905090565b610cbc610cb5611551565b8383611a50565b5050565b7f0000000000000000000000000000000000000000000000000000000000000000341015610d1a576040517fcee346dd00000000000000000000000000000000000000000000000000000000815260040160405180910390fd5b610d23336108fb565b15610d835734600960003373ffffffffffffffffffffffffffffffffffffffff1673ffffffffffffffffffffffffffffffffffffffff1681526020019081526020016000206000828254610d779190612e7a565b92505081905550610e2b565b6008339080600181540180825580915050600190039060005260206000200160009091909190916101000a81548173ffffffffffffffffffffffffffffffffffffffff021916908373ffffffffffffffffffffffffffffffffffffffff16021790555034600960003373ffffffffffffffffffffffffffffffffffffffff1673ffffffffffffffffffffffffffffffffffffffff168152602001908152602001600020819055505b3373ffffffffffffffffffffffffffffffffffffffff167f488f0eeabb9288da16353729e050290bf07ad3c948b64b9bf96944c0b345f33660405160405180910390a2565b610e7861190e565b6000610e82610bef565b905060008173ffffffffffffffffffffffffffffffffffffffff166108fc479081150290604051600060405180830381858888f19350505050905080610ef4576040517f84c4542900000000000000000000000000000000000000000000000000000000815260040160405180910390fd5b60005b600880549050811015610fc05760006009600060088481548110610f44577f4e487b7100000000000000000000000000000000000000000000000000000000600052603260045260246000fd5b9060005260206000200160009054906101000a900473ffffffffffffffffffffffffffffffffffffffff1673ffffffffffffffffffffffffffffffffffffffff1673ffffffffffffffffffffffffffffffffffffffff168152602001908152602001600020819055508080610fb89061304e565b915050610ef7565b50600067ffffffffffffffff811115611002577f4e487b7100000000000000000000000000000000000000000000000000000000600052604160045260246000fd5b6040519080825280602002602001820160405280156110305781602001602082028036833780820191505090505b5060089080519060200190611046929190612360565b505050565b61105433611440565b61108a576040517f5f3c254000000000000000000000000000000000000000000000000000000000815260040160405180910390fd5b611094600c611bbd565b60006110a0600c611bd3565b90506110ac8382611be1565b6110b68183611bff565b816040516110c49190612af6565b60405180910390203373ffffffffffffffffffffffffffffffffffffffff168473ffffffffffffffffffffffffffffffffffffffff167fbd73f7c02d443979606928c81be1eb22810ce6a3543b16b4f1dcf8081f1662c760405160405180910390a4505050565b61113c611136611551565b83611612565b61117b576040517f08c379a000000000000000000000000000000000000000000000000000000000815260040161117290612d75565b60405180910390fd5b61118784848484611c73565b50505050565b606061119882611506565b60006007600084815260200190815260200160002080546111b890612feb565b80601f01602080910402602001604051908101604052809291908181526020018280546111e490612feb565b80156112315780601f1061120657610100808354040283529160200191611231565b820191906000526020600020905b81548152906001019060200180831161121457829003601f168201915b505050505090506000611242611ccf565b905060008151141561125857819250505061129b565b60008251111561128d578082604051602001611275929190612b0d565b6040516020818303038152906040529250505061129b565b61129684611ce6565b925050505b919050565b6000600660008473ffffffffffffffffffffffffffffffffffffffff1673ffffffffffffffffffffffffffffffffffffffff16815260200190815260200160002060008373ffffffffffffffffffffffffffffffffffffffff1673ffffffffffffffffffffffffffffffffffffffff16815260200190815260200160002060009054906101000a900460ff16905092915050565b600061133f826108fb565b611375576040517f5c305d7300000000000000000000000000000000000000000000000000000000815260040160405180910390fd5b600960008373ffffffffffffffffffffffffffffffffffffffff1673ffffffffffffffffffffffffffffffffffffffff168152602001908152602001600020549050919050565b6113c461190e565b600073ffffffffffffffffffffffffffffffffffffffff168173ffffffffffffffffffffffffffffffffffffffff161415611434576040517f08c379a000000000000000000000000000000000000000000000000000000000815260040161142b90612bf5565b60405180910390fd5b61143d8161198c565b50565b600080600b60008473ffffffffffffffffffffffffffffffffffffffff1673ffffffffffffffffffffffffffffffffffffffff16815260200190815260200160002060009054906101000a900460ff1660ff1614159050919050565b60007f01ffc9a7000000000000000000000000000000000000000000000000000000007bffffffffffffffffffffffffffffffffffffffffffffffffffffffff1916827bffffffffffffffffffffffffffffffffffffffffffffffffffffffff1916149050919050565b61150f81611d4e565b61154e576040517f08c379a000000000000000000000000000000000000000000000000000000000815260040161154590612d35565b60405180910390fd5b50565b600033905090565b816005600083815260200190815260200160002060006101000a81548173ffffffffffffffffffffffffffffffffffffffff021916908373ffffffffffffffffffffffffffffffffffffffff160217905550808273ffffffffffffffffffffffffffffffffffffffff166115cc83610a71565b73ffffffffffffffffffffffffffffffffffffffff167f8c5be1e5ebec7d5bd14f71427d1e84f3dd0314c0f7b2291e5b200ac8c7c3b92560405160405180910390a45050565b60008061161e83610a71565b90508073ffffffffffffffffffffffffffffffffffffffff168473ffffffffffffffffffffffffffffffffffffffff161480611660575061165f81856112a0565b5b8061169e57508373ffffffffffffffffffffffffffffffffffffffff1661168684610715565b73ffffffffffffffffffffffffffffffffffffffff16145b91505092915050565b8273ffffffffffffffffffffffffffffffffffffffff166116c782610a71565b73ffffffffffffffffffffffffffffffffffffffff161461171d576040517f08c379a000000000000000000000000000000000000000000000000000000000815260040161171490612c15565b60405180910390fd5b600073ffffffffffffffffffffffffffffffffffffffff168273ffffffffffffffffffffffffffffffffffffffff16141561178d576040517f08c379a000000000000000000000000000000000000000000000000000000000815260040161178490612c55565b60405180910390fd5b611798838383611dba565b6117a3600082611559565b6001600460008573ffffffffffffffffffffffffffffffffffffffff1673ffffffffffffffffffffffffffffffffffffffff16815260200190815260200160002060008282546117f39190612f01565b925050819055506001600460008473ffffffffffffffffffffffffffffffffffffffff1673ffffffffffffffffffffffffffffffffffffffff168152602001908152602001600020600082825461184a9190612e7a565b92505081905550816003600083815260200190815260200160002060006101000a81548173ffffffffffffffffffffffffffffffffffffffff021916908373ffffffffffffffffffffffffffffffffffffffff160217905550808273ffffffffffffffffffffffffffffffffffffffff168473ffffffffffffffffffffffffffffffffffffffff167fddf252ad1be2c89b69c2b068fc378daa952ba7f163c4a11628f55a4df523b3ef60405160405180910390a4611909838383611dbf565b505050565b611916611551565b73ffffffffffffffffffffffffffffffffffffffff16611934610bef565b73ffffffffffffffffffffffffffffffffffffffff161461198a576040517f08c379a000000000000000000000000000000000000000000000000000000000815260040161198190612d15565b60405180910390fd5b565b60008060009054906101000a900473ffffffffffffffffffffffffffffffffffffffff169050816000806101000a81548173ffffffffffffffffffffffffffffffffffffffff021916908373ffffffffffffffffffffffffffffffffffffffff1602179055508173ffffffffffffffffffffffffffffffffffffffff168173ffffffffffffffffffffffffffffffffffffffff167f8be0079c531659141344cd1fd0a4f28419497f9722a3daafe3b4186f6b6457e060405160405180910390a35050565b8173ffffffffffffffffffffffffffffffffffffffff168373ffffffffffffffffffffffffffffffffffffffff161415611abf576040517f08c379a0000000000000000000000000000000000000000000000000000000008152600401611ab690612c75565b60405180910390fd5b80600660008573ffffffffffffffffffffffffffffffffffffffff1673ffffffffffffffffffffffffffffffffffffffff16815260200190815260200160002060008473ffffffffffffffffffffffffffffffffffffffff1673ffffffffffffffffffffffffffffffffffffffff16815260200190815260200160002060006101000a81548160ff0219169083151502179055508173ffffffffffffffffffffffffffffffffffffffff168373ffffffffffffffffffffffffffffffffffffffff167f17307eab39ab6107e8899845ad3d59bd9653f200f220920489ca2b5937696c3183604051611bb09190612b98565b60405180910390a3505050565b6001816000016000828254019250508190555050565b600081600001549050919050565b611bfb828260405180602001604052806000815250611dc4565b5050565b611c0882611d4e565b611c47576040517f08c379a0000000000000000000000000000000000000000000000000000000008152600401611c3e90612cb5565b60405180910390fd5b80600760008481526020019081526020016000209080519060200190611c6e9291906123ea565b505050565b611c7e8484846116a7565b611c8a84848484611e1f565b611cc9576040517f08c379a0000000000000000000000000000000000000000000000000000000008152600401611cc090612bd5565b60405180910390fd5b50505050565b606060405180602001604052806000815250905090565b6060611cf182611506565b6000611cfb611ccf565b90506000815111611d1b5760405180602001604052806000815250611d46565b80611d2584611fb6565b604051602001611d36929190612b0d565b6040516020818303038152906040525b915050919050565b60008073ffffffffffffffffffffffffffffffffffffffff166003600084815260200190815260200160002060009054906101000a900473ffffffffffffffffffffffffffffffffffffffff1673ffffffffffffffffffffffffffffffffffffffff1614159050919050565b505050565b505050565b611dce8383612163565b611ddb6000848484611e1f565b611e1a576040517f08c379a0000000000000000000000000000000000000000000000000000000008152600401611e1190612bd5565b60405180910390fd5b505050565b6000611e408473ffffffffffffffffffffffffffffffffffffffff1661233d565b15611fa9578373ffffffffffffffffffffffffffffffffffffffff1663150b7a02611e69611551565b8786866040518563ffffffff1660e01b8152600401611e8b9493929190612b4c565b602060405180830381600087803b158015611ea557600080fd5b505af1925050508015611ed657506040513d601f19601f82011682018060405250810190611ed391906127ea565b60015b611f59573d8060008114611f06576040519150601f19603f3d011682016040523d82523d6000602084013e611f0b565b606091505b50600081511415611f51576040517f08c379a0000000000000000000000000000000000000000000000000000000008152600401611f4890612bd5565b60405180910390fd5b805181602001fd5b63150b7a0260e01b7bffffffffffffffffffffffffffffffffffffffffffffffffffffffff1916817bffffffffffffffffffffffffffffffffffffffffffffffffffffffff191614915050611fae565b600190505b949350505050565b60606000821415611ffe576040518060400160405280600181526020017f3000000000000000000000000000000000000000000000000000000000000000815250905061215e565b600082905060005b600082146120305780806120199061304e565b915050600a826120299190612ed0565b9150612006565b60008167ffffffffffffffff811115612072577f4e487b7100000000000000000000000000000000000000000000000000000000600052604160045260246000fd5b6040519080825280601f01601f1916602001820160405280156120a45781602001600182028036833780820191505090505b5090505b60008514612157576001826120bd9190612f01565b9150600a856120cc9190613097565b60306120d89190612e7a565b60f81b818381518110612114577f4e487b7100000000000000000000000000000000000000000000000000000000600052603260045260246000fd5b60200101907effffffffffffffffffffffffffffffffffffffffffffffffffffffffffffff1916908160001a905350600a856121509190612ed0565b94506120a8565b8093505050505b919050565b600073ffffffffffffffffffffffffffffffffffffffff168273ffffffffffffffffffffffffffffffffffffffff1614156121d3576040517f08c379a00000000000000000000000000000000000000000000000000000000081526004016121ca90612cf5565b60405180910390fd5b6121dc81611d4e565b1561221c576040517f08c379a000000000000000000000000000000000000000000000000000000000815260040161221390612c35565b60405180910390fd5b61222860008383611dba565b6001600460008473ffffffffffffffffffffffffffffffffffffffff1673ffffffffffffffffffffffffffffffffffffffff16815260200190815260200160002060008282546122789190612e7a565b92505081905550816003600083815260200190815260200160002060006101000a81548173ffffffffffffffffffffffffffffffffffffffff021916908373ffffffffffffffffffffffffffffffffffffffff160217905550808273ffffffffffffffffffffffffffffffffffffffff16600073ffffffffffffffffffffffffffffffffffffffff167fddf252ad1be2c89b69c2b068fc378daa952ba7f163c4a11628f55a4df523b3ef60405160405180910390a461233960008383611dbf565b5050565b6000808273ffffffffffffffffffffffffffffffffffffffff163b119050919050565b8280548282559060005260206000209081019282156123d9579160200282015b828111156123d85782518260006101000a81548173ffffffffffffffffffffffffffffffffffffffff021916908373ffffffffffffffffffffffffffffffffffffffff16021790555091602001919060010190612380565b5b5090506123e69190612470565b5090565b8280546123f690612feb565b90600052602060002090601f016020900481019282612418576000855561245f565b82601f1061243157805160ff191683800117855561245f565b8280016001018555821561245f579182015b8281111561245e578251825591602001919060010190612443565b5b50905061246c9190612470565b5090565b5b80821115612489576000816000905550600101612471565b5090565b60006124a061249b84612dd5565b612db0565b9050828152602081018484840111156124b857600080fd5b6124c3848285612fa9565b509392505050565b60006124de6124d984612e06565b612db0565b9050828152602081018484840111156124f657600080fd5b612501848285612fa9565b509392505050565b60008135905061251881613529565b92915050565b60008135905061252d81613540565b92915050565b60008135905061254281613557565b92915050565b60008151905061255781613557565b92915050565b600082601f83011261256e57600080fd5b813561257e84826020860161248d565b91505092915050565b600082601f83011261259857600080fd5b81356125a88482602086016124cb565b91505092915050565b6000813590506125c08161356e565b92915050565b6000602082840312156125d857600080fd5b60006125e684828501612509565b91505092915050565b6000806040838503121561260257600080fd5b600061261085828601612509565b925050602061262185828601612509565b9150509250929050565b60008060006060848603121561264057600080fd5b600061264e86828701612509565b935050602061265f86828701612509565b9250506040612670868287016125b1565b9150509250925092565b6000806000806080858703121561269057600080fd5b600061269e87828801612509565b94505060206126af87828801612509565b93505060406126c0878288016125b1565b925050606085013567ffffffffffffffff8111156126dd57600080fd5b6126e98782880161255d565b91505092959194509250565b6000806040838503121561270857600080fd5b600061271685828601612509565b92505060206127278582860161251e565b9150509250929050565b6000806040838503121561274457600080fd5b600061275285828601612509565b925050602083013567ffffffffffffffff81111561276f57600080fd5b61277b85828601612587565b9150509250929050565b6000806040838503121561279857600080fd5b60006127a685828601612509565b92505060206127b7858286016125b1565b9150509250929050565b6000602082840312156127d357600080fd5b60006127e184828501612533565b91505092915050565b6000602082840312156127fc57600080fd5b600061280a84828501612548565b91505092915050565b60006020828403121561282557600080fd5b6000612833848285016125b1565b91505092915050565b61284581612f35565b82525050565b61285481612f47565b82525050565b600061286582612e37565b61286f8185612e4d565b935061287f818560208601612fb8565b61288881613184565b840191505092915050565b600061289e82612e42565b6128a88185612e5e565b93506128b8818560208601612fb8565b6128c181613184565b840191505092915050565b60006128d782612e42565b6128e18185612e6f565b93506128f1818560208601612fb8565b80840191505092915050565b600061290a603283612e5e565b915061291582613195565b604082019050919050565b600061292d602683612e5e565b9150612938826131e4565b604082019050919050565b6000612950602583612e5e565b915061295b82613233565b604082019050919050565b6000612973601c83612e5e565b915061297e82613282565b602082019050919050565b6000612996602483612e5e565b91506129a1826132ab565b604082019050919050565b60006129b9601983612e5e565b91506129c4826132fa565b602082019050919050565b60006129dc602983612e5e565b91506129e782613323565b604082019050919050565b60006129ff602e83612e5e565b9150612a0a82613372565b604082019050919050565b6000612a22603e83612e5e565b9150612a2d826133c1565b604082019050919050565b6000612a45602083612e5e565b9150612a5082613410565b602082019050919050565b6000612a68602083612e5e565b9150612a7382613439565b602082019050919050565b6000612a8b601883612e5e565b9150612a9682613462565b602082019050919050565b6000612aae602183612e5e565b9150612ab98261348b565b604082019050919050565b6000612ad1602e83612e5e565b9150612adc826134da565b604082019050919050565b612af081612f9f565b82525050565b6000612b0282846128cc565b915081905092915050565b6000612b1982856128cc565b9150612b2582846128cc565b91508190509392505050565b6000602082019050612b46600083018461283c565b92915050565b6000608082019050612b61600083018761283c565b612b6e602083018661283c565b612b7b6040830185612ae7565b8181036060830152612b8d818461285a565b905095945050505050565b6000602082019050612bad600083018461284b565b92915050565b60006020820190508181036000830152612bcd8184612893565b905092915050565b60006020820190508181036000830152612bee816128fd565b9050919050565b60006020820190508181036000830152612c0e81612920565b9050919050565b60006020820190508181036000830152612c2e81612943565b9050919050565b60006020820190508181036000830152612c4e81612966565b9050919050565b60006020820190508181036000830152612c6e81612989565b9050919050565b60006020820190508181036000830152612c8e816129ac565b9050919050565b60006020820190508181036000830152612cae816129cf565b9050919050565b60006020820190508181036000830152612cce816129f2565b9050919050565b60006020820190508181036000830152612cee81612a15565b9050919050565b60006020820190508181036000830152612d0e81612a38565b9050919050565b60006020820190508181036000830152612d2e81612a5b565b9050919050565b60006020820190508181036000830152612d4e81612a7e565b9050919050565b60006020820190508181036000830152612d6e81612aa1565b9050919050565b60006020820190508181036000830152612d8e81612ac4565b9050919050565b6000602082019050612daa6000830184612ae7565b92915050565b6000612dba612dcb565b9050612dc6828261301d565b919050565b6000604051905090565b600067ffffffffffffffff821115612df057612def613155565b5b612df982613184565b9050602081019050919050565b600067ffffffffffffffff821115612e2157612e20613155565b5b612e2a82613184565b9050602081019050919050565b600081519050919050565b600081519050919050565b600082825260208201905092915050565b600082825260208201905092915050565b600081905092915050565b6000612e8582612f9f565b9150612e9083612f9f565b9250827fffffffffffffffffffffffffffffffffffffffffffffffffffffffffffffffff03821115612ec557612ec46130c8565b5b828201905092915050565b6000612edb82612f9f565b9150612ee683612f9f565b925082612ef657612ef56130f7565b5b828204905092915050565b6000612f0c82612f9f565b9150612f1783612f9f565b925082821015612f2a57612f296130c8565b5b828203905092915050565b6000612f4082612f7f565b9050919050565b60008115159050919050565b60007fffffffff0000000000000000000000000000000000000000000000000000000082169050919050565b600073ffffffffffffffffffffffffffffffffffffffff82169050919050565b6000819050919050565b82818337600083830152505050565b60005b83811015612fd6578082015181840152602081019050612fbb565b83811115612fe5576000848401525b50505050565b6000600282049050600182168061300357607f821691505b6020821081141561301757613016613126565b5b50919050565b61302682613184565b810181811067ffffffffffffffff8211171561304557613044613155565b5b80604052505050565b600061305982612f9f565b91507fffffffffffffffffffffffffffffffffffffffffffffffffffffffffffffffff82141561308c5761308b6130c8565b5b600182019050919050565b60006130a282612f9f565b91506130ad83612f9f565b9250826130bd576130bc6130f7565b5b828206905092915050565b7f4e487b7100000000000000000000000000000000000000000000000000000000600052601160045260246000fd5b7f4e487b7100000000000000000000000000000000000000000000000000000000600052601260045260246000fd5b7f4e487b7100000000000000000000000000000000000000000000000000000000600052602260045260246000fd5b7f4e487b7100000000000000000000000000000000000000000000000000000000600052604160045260246000fd5b6000601f19601f8301169050919050565b7f4552433732313a207472616e7366657220746f206e6f6e20455243373231526560008201527f63656976657220696d706c656d656e7465720000000000000000000000000000602082015250565b7f4f776e61626c653a206e6577206f776e657220697320746865207a65726f206160008201527f6464726573730000000000000000000000000000000000000000000000000000602082015250565b7f4552433732313a207472616e736665722066726f6d20696e636f72726563742060008201527f6f776e6572000000000000000000000000000000000000000000000000000000602082015250565b7f4552433732313a20746f6b656e20616c7265616479206d696e74656400000000600082015250565b7f4552433732313a207472616e7366657220746f20746865207a65726f2061646460008201527f7265737300000000000000000000000000000000000000000000000000000000602082015250565b7f4552433732313a20617070726f766520746f2063616c6c657200000000000000600082015250565b7f4552433732313a2061646472657373207a65726f206973206e6f74206120766160008201527f6c6964206f776e65720000000000000000000000000000000000000000000000602082015250565b7f45524337323155524953746f726167653a2055524920736574206f66206e6f6e60008201527f6578697374656e7420746f6b656e000000000000000000000000000000000000602082015250565b7f4552433732313a20617070726f76652063616c6c6572206973206e6f7420746f60008201527f6b656e206f776e6572206e6f7220617070726f76656420666f7220616c6c0000602082015250565b7f4552433732313a206d696e7420746f20746865207a65726f2061646472657373600082015250565b7f4f776e61626c653a2063616c6c6572206973206e6f7420746865206f776e6572600082015250565b7f4552433732313a20696e76616c696420746f6b656e2049440000000000000000600082015250565b7f4552433732313a20617070726f76616c20746f2063757272656e74206f776e6560008201527f7200000000000000000000000000000000000000000000000000000000000000602082015250565b7f4552433732313a2063616c6c6572206973206e6f7420746f6b656e206f776e6560008201527f72206e6f7220617070726f766564000000000000000000000000000000000000602082015250565b61353281612f35565b811461353d57600080fd5b50565b61354981612f47565b811461355457600080fd5b50565b61356081612f53565b811461356b57600080fd5b50565b61357781612f9f565b811461358257600080fd5b5056fea264697066735822122011be74ed0e286dee2c61329004eff9402c201b4be5b4007d22bd58b6ac6136ee64736f6c63430008040033",
  "linkReferences": {},
  "deployedLinkReferences": {}
}